:020000040800F2
:10000000A82D0020C96800088167000883670008E0
:1000100085670008876700088967000800000000FE
:100020000000000000000000000000008B670008D6
:100030008D670008000000008F67000891670008C6
:10004000F1680008F5680008F9680008FD68000814
:100050000169000805690008096900080D690008C0
:100060001169000815690008196900081D69000870
:100070002169000825690008296900082D69000820
:100080003169000835690008396900083D690008D0
:100090004169000845690008496900084D69000880
:1000A0005169000855690008596900085D69000830
:1000B0006169000865690008696900086D690008E0
:1000C0007169000875690008796900087D69000890
:1000D0008169000885690008896900088D69000840
:1000E0009169000895690008996900089D690008F0
:1000F000A1690008A5690008A9690008AD690008A0
:10010000B1690008B5690008B9690008BD6900084F
:10011000C1690008C5690008C9690008CD690008FF
:10012000D1690008D5690008D9690008DD690008AF
:10013000E1690008E5690008E9690008ED6900085F
:10014000F1690008F5690008F9690008FD6900080F
:10015000016A0008056A0008096A00080D6A0008BB
:10016000116A0008156A0008196A00081D6A00086B
:10017000216A000899670008256A0008000000004D
:10018000296A00082D6A0008316A0008356A0008EB
:10019000396A00083D6A0008416A0008456A00089B
:1001A0000000000000000000496A00084D6A0008D5
:1001B000516A0008556A0008596A00085D6A00081B
:1001C000616A0008656A000800F5E0700268914203
:1001D00003D343681A44914202D380680028F5D1C2
:1001E00070471849086880B94FF4805048604FF450
:1001F00080324FF0FF30C86008610420124B8A60E3
:100200004861C3F8BC01114808600120704701F142
:10021000080313F0070F0EBF0023C3F1080303F018
:1002200007031944D21A8161C26042F001034B6096
:10023000091D4FF0280C41F802C0024A1369C3613E
:1002400070470000801D0020641A00206859883C17
:100250002DE9F84F84B00646AFF30080F52E1E4D11
:1002600080F00F820B2E31BF10260B36F608F600F9
:100270002868F408E04010F0030F4AD0C04300F0B3
:100280000100041905F1280000EBC408E700D8F8C4
:1002900008607068C008C000B84218BF01F0E2F9F9
:1002A000D6F80890464508BF01F0DCF94E4508BF76
:1002B00001F0D8F97068C008C000B84218BF01F05A
:1002C000D1F9C8450AD12868012101FA04F420EACD
:1002D00004042C6010E000BF641A002028698145E6
:1002E00008D3D9F80C10B14204D1C8F80890C9F865
:1002F0000C8001E001F0B6F947F00300311D706099
:10030000301DCA5942F00102C25106F1080800F03E
:1003100010BFA968B14280F09F83002800F0A2803E
:100320004FF0010808FA04F1490000FA04F44842C9
:1003300001430C4060420440641E200B00F010009A
:10034000C440610901F00801CC40A20802F0040297
:10035000D440630803F002030818DC401018C4F30B
:10036000400718183818FC40241805F1280000EB45
:10037000C40AE700DAF80890D9F80400C008C00001
:10038000B84218BF01F06EF9D9F808B0D14508BFDE
:1003900001F068F9D94508BF01F064F9D9F8040003
:1003A000C008C000B84218BF01F05CF9DA4506D1B8
:1003B000286808FA04F420EA04042C600DE0296996
:1003C0008B4508D3DBF80C00484504D1CAF808B0C7
:1003D000CBF80CA001E001F045F9BF1B46F003008B
:1003E00009F10402C9F8040047F00101915109EB39
:1003F00006020192D751AC684FEAD40ABAF11F0F36
:1004000088BF01F02FF934B3CDF800A005F1280022
:100410006E6900EBCA0AD346102C38BF01F022F9EE
:100420002968009821FA00F2D30704D408FA00F0F2
:100430000843286007E0DAF80800296988422CBFE1
:10044000834601F00FF9CAF80860CBF80C60C6F8D3
:1004500008B0C6F80CA0AF6009F1080801986861FF
:1004600000F067BE6868002800F01783414208402A
:10047000401E010B01F01001C840420902F00802C1
:10048000D040830803F00403D840440804F0020479
:100490005118E0405918C0F34007611805F59878E5
:1004A0007918F840401858F820104868C008C00073
:1004B0008A46A0EB060B08E001464868C008C00069
:1004C000801B58453CBF83468A4608690028F3D103
:1004D00049690029F1D128698245C0F0CF80DAF856
:1004E0000410C90806EB0B09C900494518BF01F003
:1004F000B9F80AEB06008245019080F0BF80DAF877
:100500000C40DAF8187054450DD0DAF80800296963
:10051000884223D3C268524504BFA16851451DD10A
:10052000C460A0601CE00AF114010C6834B90AF13F
:1005300010010C68A4B101E011460C6804F114022A
:100540001068002802BF04F1100210680028F3D1DF
:100550002869814202D300220A6001E001F082F89A
:10056000002F34D0DAF81C0008EB800001688A45BF
:1005700009D1046094B9DAF81C006968012282404C
:100580009143696023E02869874205D33969514561
:1005900014BF7C613C6101E001F064F8BCB12969E1
:1005A0008C4212D3A761DAF8100028B1884226BF26
:1005B0002061846101F056F8DAF8140038B1296935
:1005C000884202D36061846101E001F04BF8BBF125
:1005D000100F0ED249F003000AF10401CAF804001A
:1005E0000AF1040051F8092042F0010240F8092004
:1005F0003EE046F003010AF10402CAF804104BF091
:1006000001009051019941F80BB0A8680090C4080E
:100610001F2C88BF01F026F8009828B305F12800A8
:1006200000996F6900EBC408C146102938BF01F07A
:1006300019F8286820FA04F1CA0705D4012101FA43
:1006400004F404432C6007E0D8F8080029698842C4
:100650002CBF814601F006F8C8F80870C9F80C7084
:10066000C7F80890C7F80C80C5F808B00198686111
:100670001AF1080800F0F08100F05BBD00F0F2FF15
:10068000EAE116F1400F28BF4FF0FF3680F0E48119
:100690000B36F6086B68F600002B00F0DD810027B2
:1006A000300AC6F1000908BF002423D0B0F5803F0E
:1006B00028BF1F241ED2A0F58071090C01F008018B
:1006C0008840A0F58052120C02F004029040A0F580
:1006D0008044240CC1F10E0104F00204891A091BA4
:1006E000A04001EBD031C81D26FA00F404F001044B
:1006F00004EB410405F5987858F8240030B31F2C1A
:100700000FBFB4464FEA540CCCF1190C06FA0CFC9E
:10071000BE46494601E04FEA4C0C4268D208D2007E
:10072000921B8A4202D2110007460CD04269103057
:100730004FEADC7950F82900002A1CBF8242964615
:100740000028E8D170468946A8BBB7BB012101FA51
:1007500004F4640060420443234000F07D81584269
:1007600003405B1E180B00F01000C340590901F054
:100770000801CB409A0802F00402D3405C0804F060
:1007800002040818E3401018C3F3400C201860441A
:1007900023FA0CF31B1858F823000CE008464168B4
:1007A000C908C900891B49453CBF894607460169FC
:1007B0000029F3D140690028F1D1002F00F04C81CD
:1007C000A868801B814580F0478129698F42FFF42A
:1007D00055AF7868C008C00006EB0901884218BF11
:1007E00000F040FF07EB060B5F45BFF447AFFC6826
:1007F000D7F818A0BC420CD0B8682969884223D326
:10080000C268BA4204BFA168B9421DD1C460A060E9
:100810001CE007F114010C6834B907F110010C68F1
:10082000A4B101E011460C6804F11402106800281C
:1008300002BF04F1100210680028F3D12869814238
:1008400002D300220A6001E000F00CFFBAF1000FB1
:1008500034D0F86908EB800001688F4208D1046049
:10086000A4B9F8696968012282409143696025E072
:100870002869824508D3DAF81010B94214BFCAF8C3
:100880001440CAF8104001E000F0ECFEB4B1296950
:100890008C4211D3C4F818A0386928B1884226BF09
:1008A0002061846100F0DEFE786938B129698842F0
:1008B00002D36061846101E000F0D4FEB9F1100F51
:1008C0000CD2B14449F00300391D7860381D51F84D
:1008D000092042F0010240F80920B9E046F0030186
:1008E0003A1D796049F0010090514FEAD9004BF868
:1008F00009901F2822D805F1280101EBC0042968BE
:1009000021FA00F2D307A04605D4012202FA00F032
:100910000843286006E0A068296988422CBF804609
:1009200000F0A0FEC4F808B007F10800C8F80CB049
:1009300040F8068007F10C018C5189E05FEA19202C
:1009400008BF002123D0B0F5803F28BF1F211ED251
:10095000A0F58072120C02F008029040A0F58051C0
:10096000090C01F004018840A0F580431B0CC2F182
:100970000E0203F00203521AD21A984002EBD03250
:10098000D01D29FA00F101F0010101EB420107F14C
:100990001403CBF81C1000229A5107F1100308EB46
:1009A00081009A516A6822FA01F3DC0711D401230D
:1009B00003FA01F111436960C0F800B0CBF81800E8
:1009C00007F1080107F10C0040F806B041F806B045
:1009D0003EE002681F291DBF4908C1F1190109FA4B
:1009E00001F1494600E002465068C008C000484591
:1009F00018D002F11003C80F03EB800349001868F8
:100A00000028F0D12869834220D3C3F800B007F151
:100A10000C01CBF8182041F806B007F1080040F8A7
:100A200006B015E0296990688A4228BF88420DD334
:100A3000C0F80CB007F10801C2F808B0885107F1FE
:100A40000C0082510022CBF8182001E000F00AFED1
:100A500017F1080840F06D83A868B0421DD3811BD0
:100A60006A6910290AD390196861A96041F00103ED
:100A70004360415046F0030656600BE00021A96038
:100A80006961131D40F003015160111D1C5844F0B1
:100A900001040C5002F108084BE3E8688642C0F0FC
:100AA0003883DFF8B89BD9F8000008B9FFF799FB45
:100AB000D9F8081088192F30491E20EA01018E420A
:100AC00080F0358305F5D877B86838B13A68891869
:100AD0008A4280F02C838842C0F0298300F0E2FD36
:100AE00000281CBFD0F8008010F1010F00F01F8318
:100AF00039687A68414439608A4238BF7960AC69A4
:100B000004BB296909B1884200D2286100213861FB
:100B1000C7F81480F9614FF0FF31D9F800206A62FC
:100B2000296205F128020021D260926002F10804D6
:100B300054611461891C10321F29F5D9A8F12802CB
:100B400001461DE005F5E0710A46814600E0926825
:100B5000D2B11068536803449945F8D1107B03075C
:100B600012D413689C420FD3D2F804C063449C4251
:100B70000AD2C444C2F804C02146E86808EB000267
:100B80002846FFF744FBC1E22869814538BFC5F814
:100B9000109009EB080000E08968002900F0BD8191
:100BA0000A688242F8D1087B020700F1B681086822
:100BB000C1F800904A6842444A6009F1080111F006
:100BC000070F08BFCDF8049006D0C1F1080101F06D
:100BD000070109EB0102019200F1080111F0070F72
:100BE00004D0C1F1080101F00701084480460198D2
:100BF000A8EB00018419A1EB060B274646F003067B
:100C00004660474528BF00F02DFD98F80400C10755
:100C100058BF00F027FDBBF1100F38BF00F022FDD8
:100C2000A869804508D1E9688B44C5F80CB0AF616C
:100C30004BF0010078606CE1686980450AD1A968D1
:100C40008B44C5F808B06F614BF00100786047F83D
:100C50000BB05EE1D8F8040000F00301012940F078
:100C6000B880C008C000C1081F29039040D8D8F838
:100C700008200092D8F80C600291B04508BF00F03F
:100C8000F1FC0098804508BF00F0ECFCD8F80400A7
:100C90000299C008C000B0EBC10F18BF00F0E2FC21
:100CA0000299009A05F1280000EBC100824208D0A9
:100CB00011462A699142C0F08780CA68424540F0D7
:100CC000838000998E4206D102982A6801238340CE
:100CD0009A432A607AE0864205D029698E4273D30E
:100CE000B068404570D10098C6600099B1606DE071
:100CF000D8F818000090D8F80C6046450DD0D8F808
:100D000008002969884223D3C268424504BFB168FC
:100D100041451DD1C660B0601CE008F114010E68A9
:100D200036B908F110010E68A6B101E011460E684F
:100D300006F114021068002802BF06F110021068C4
:100D40000028F3D12869814202D300220A6001E021
:100D500000F088FC0098002838D0D8F81C0005F571
:100D6000987101EB80000168884509D106609EB941
:100D7000D8F81C006968012282409143696025E02F
:100D800000982969884205D30169414514BF46612D
:100D9000066101E000F066FCC6B129698E4213D3FA
:100DA0000098B061D8F8100028B1884226BF3061A1
:100DB000866100F057FCD8F8140038B129698842E0
:100DC00002D37061866101E000F04CFC0399884415
:100DD0008B44D8F8041049084900C8F804104BF0B7
:100DE000010078604FEADB0647F80BB01F2E22D8CF
:100DF00005F1280000EBC604A146BBF1100F38BF77
:100E000000F030FC286820FA06F1CA0705D4012159
:100E100001FA06F606432E6006E0A06829698842BA
:100E20002CBF814600F01EFCA760C9F80C70C7F803
:100E30000890FC606DE05FEA1B2008BF002123D012
:100E4000B0F5803F28BF1F211ED2A0F58072120C82
:100E500002F008029040A0F58051090C01F0040155
:100E60008840A0F580431B0CC2F10E0203F0020380
:100E7000521AD21A984002EBD032D01D2BFA00F150
:100E800001F0010101EB4201F961002305F59872BF
:100E90007B6102EB81003B616A6822FA01F3DE07A5
:100EA00007D4012303FA01F1114369600760B861B7
:100EB0001DE002681F291DBF4908C1F119010BFA85
:100EC00001F1594600E002465068C008C00058458C
:100ED00010D002F11003C80F03EB8003490018681B
:100EE0000028F0D12869834211D31F60BA61FF60E6
:100EF000BC600EE0296990688A4228BF884206D308
:100F0000C7609460B860FA600020B86101E000F04A
:100F1000A9FB019800F108080BE121462846FFF7DC
:100F200053F90168406808440090A0F1270111F0CE
:100F3000070000980EBF0021C1F1080101F0070170
:100F40000844A0F12F0B04F110018B4538BFA346D4
:100F50000BF11802002102920191A8F128024946E2
:100F60002846FFF754F90BF1080010F0070F18BFDF
:100F700000F078FB1B20CBF8040005F5E07292E846
:100F800009500BF1080181E8095000210BF108001C
:100F9000F961B861009A02980199C7F81090C7F8F2
:100FA0001480072300E0001D491C00F10807974248
:100FB0004360F8D30129D8BF00F054FBA34500F0EB
:100FC000A580ABEB040B201D221D50F80B10490827
:100FD000490042F80B104BF0010060604FEADB095A
:100FE00044F80BB0B9F11F0F22D805F1280000EB2F
:100FF000C907B846BBF1100F38BF00F033FB2868B3
:1010000020FA09F1CA0705D4012101FA09F10843C0
:10101000286006E0B868296988422CBF804600F045
:1010200021FBBC60C8F80C40C4F80880E7606DE0A4
:101030005FEA1B2008BF002123D0B0F5803F28BF06
:101040001F211ED2A0F58072120C02F008029040FF
:10105000A0F58051090C01F004018840A0F58043FF
:101060001B0CC2F10E0203F00203521AD21A98406E
:1010700002EBD032D01D2BFA00F101F0010101EB9F
:10108000420105F59872002302EB8100E161636182
:1010900023616A6822FA01F3DF0707D4012303FA08
:1010A00001F1114369600460A0611DE002681F291D
:1010B0001DBF4908C1F119010BFA01F1594600E0C1
:1010C00002465068C008C000584510D002F1100315
:1010D000C80F03EB8003490018680028F0D1286985
:1010E000834211D31C60A261E460A4600EE0296910
:1010F00090688A4228BF884206D3C4609460A0608A
:10110000E2600020A06101E000F0ACFAE8688642ED
:101110000DD2801BA969E8608A19AA6140F001001C
:10112000506046F003064E6001F1080801E04FF000
:101130000008AFF30080404605B0BDE8F08F0028FE
:1011400000D170472DE9F047A0F10805AFF300800A
:10115000DFF80C6531698D42C0F07A82686800F072
:101160000302012A00F07482C2084FEAC209C207D2
:1011700005EB090839D42C6810F0030F00F06A82DF
:10118000604205448D42A144C0F06282706985428C
:1011900000F0DA80E408202C72D2D5F80CA0AF68F9
:1011A000554508BF00F05EFABD4208BF00F05AFA8C
:1011B0006868C008C000B0EBC40F18BF00F052FA56
:1011C00006F1280000EBC400874205D031698F4248
:1011D00053D3FA68AA4250D1BA4540D130680121B0
:1011E00001FA04F420EA04043460454580F03082BA
:1011F000D8F80440E00740F12B82A10700F17C8180
:10120000B069804540F0B380F168B5618944C6F8A3
:101210000C9049F00100686071698D4202D1002094
:101220007061B060F169494580F01482DFF82C24C8
:10123000106808B9FEF7D5FFB169002900F00A82ED
:10124000F068292824BF3046FEF7BEFFF069F16838
:10125000884280F0FF814FF0FF30F061FAE1824573
:1012600006D03069824508D3DAF80810A94204D1C3
:10127000C7F80CA0CAF80870B7E700F0F3F9B4E7B4
:10128000EC68AF69AC420BD0A868884222D3C16831
:10129000A94204BFA268AA421CD1C460A0601BE09E
:1012A00005F11402146834B905F1100214689CB1F8
:1012B00001E01A46146804F114031868002802BFFC
:1012C00004F1100318680028F3D18A4202D30021E8
:1012D000116001E000F0C6F9002F86D0E96906F53B
:1012E000987000EB81000268954209D104602000EB
:1012F00011D1E8697168012282409143716074E7FD
:101300003069874205D33969A94214BF7C613C61C9
:1013100001E000F0A7F9002C3FF467AF31698C427F
:10132000ABD3A761286928B1884226BF20618461B8
:1013300000F098F9686900283FF457AF3169884296
:101340009BD36061846150E798F8040000F00300CB
:1013500003287FF44AAFC6F8089049F00101D8F895
:10136000040040084000C8F8040069600AE07069A1
:1013700080450AD1B16875618944C6F8089049F082
:101380000100686045F8099064E1E408E400A144C4
:10139000E408202C3AD2D8F80CA0D8F80870D04530
:1013A00008BF00F05FF9B84508BF00F05BF9D8F856
:1013B0000400C008C000B0EBC40F18BF00F052F921
:1013C00006F1280000EBC400874207D031698F4244
:1013D000C0F08580FA68424540F08180BA4507D167
:1013E0003068012101FA04F420EA0404346078E052
:1013F000824506D03069824571D3DAF8081041453C
:101400006DD1C7F80CA0CAF808706AE0D8F80C4093
:10141000D8F8187044450DD0D8F8080031698842D2
:1014200023D3C268424504BFA16841451DD1C460B1
:10143000A0601CE008F114010C6834B908F1100137
:101440000C68A4B101E011460C6804F114021068A4
:10145000002802BF04F1100210680028F3D130699F
:10146000814202D300220A6001E000F0FBF8002F65
:1014700037D0D8F81C1006F5987000EB8100026890
:1014800090450AD10460200012D1D8F81C00716880
:10149000012282409143716023E03069874205D385
:1014A0003969414514BF7C613C6101E000F0DAF824
:1014B000BCB131698C4212D3A761D8F8100028B1B1
:1014C000884226BF2061846100F0CCF8D8F814006F
:1014D00038B13169884202D36061846101E000F073
:1014E000C1F849F00100686045F8099071698D42C2
:1014F0000BD1C6F80890ADE064086400C8F8044059
:1015000049F00100686045F809904FEAD907202F9B
:1015100022D206F1280000EBC704A046B9F1100F53
:1015200038BF00F09FF8306820FA07F1CA0705D4E9
:10153000012101FA07F70743376006E0A068316927
:1015400088422CBF804600F08DF8A560C8F80C508A
:10155000C5F80880EC607DE05FEA192008BF002133
:1015600023D0B0F5803F28BF1F211ED2A0F5807286
:10157000120C02F008029040A0F58051090C01F015
:1015800004018840A0F580431B0CC2F10E0203F059
:101590000203521AD21A984002EBD032D01D29FA17
:1015A00000F101F0010101EB420106F59872002300
:1015B00002EB8100E9616B612B61726822FA01F331
:1015C000DC0707D4012303FA01F1114371600560C0
:1015D000A8611DE002681F291DBF4908C1F119015A
:1015E00009FA01F1494600E002465068C008C0000F
:1015F000484510D002F11003C80F03EB80034900E7
:1016000018680028F0D13069834211D31D60AA61A7
:10161000ED60AD600EE0316990688A4228BF884273
:1016200006D3C5609560A860EA600020A86101E06B
:1016300000F018F8306A401E30620BD1D6F8C801AD
:1016400000E080680028FCD14FF0FF30306201E0FC
:1016500000F008F8AFF30080BDE8F087801D00209F
:10166000641A0020012000F033B830B4002513E0E4
:1016700050F8042BD30744BFA9F101039A18091F9E
:10168000042942F8045BFAD213468C0744BF158044
:101690009B1CC90748BF1D7050F8041B0029E7D1E7
:1016A00030BC70470749086808B1002070470648F9
:1016B000C008C00008600549C908C900091A0160CE
:1016C000704700BF9C1D0020AF2D0020A84D0020BA
:1016D00080B5AFF30080024A11001820ABBEFBE7D3
:1016E000260002000EB418B504000898012817D18E
:1016F000A06B30F48030A063E168DFF87C09014022
:10170000E160E06830F44010E0600F98012803D1F8
:10171000E06850F48010E060200000F05CFF0AE018
:10172000E06850F04000E060200000F054FFA16B42
:1017300051F48031A1630699012907D1A16851F0C4
:101740000601A160A16851F02001A160C0B212BCE5
:101750005DF810FB30B403001000C0B202285BD16A
:10176000DFF81809814205D3DFF81409814201D25C
:101770000F2458E0DFF80809814205D3DFF8040997
:10178000814201D20E244EE0DFF8F808814205D3F1
:10179000DFF8F408814201D20D2444E0DFF8E808C4
:1017A000814205D3DFF8E408814201D20C243AE0FB
:1017B000DFF8D808814205D3DFF8D408814201D28E
:1017C0000B2430E0DFF8C808814205D3DFF8C408F5
:1017D000814201D20A2426E0DFF8B808814205D30D
:1017E000DFF8B408814201D209241CE0DFF8A80820
:1017F000814205D3DFF8A408814201D2082412E017
:10180000DFF89808814205D3DFF89408814201D2BD
:10181000072408E0062406E01000C0B2002801D129
:10182000092400E00924D86830F47050D860D868E2
:10183000A50215F470552843D860002030BC7047CD
:101840000100886850F001008860002070470100A6
:1018500088684008400088600020704738B5040060
:101860000D00E06830F0C040E0602800C0B2012800
:1018700004D1E06850F00050E0600AE02800C0B2F7
:10188000002804D1E06850F08040E06001E00120D1
:1018900003E0322000F0C8FE002032BD0EB4F0B5E7
:1018A00004000025260000270F2F06D2002004EB9D
:1018B0008701C1F804017F1CF6E70F98002814D1B6
:1018C00016F50060406850F0020016F500614860AF
:1018D000A06B30F40010A063206850F0400020603E
:1018E000206850F08000206003E0A06B50F40010EE
:1018F000A063002016F56061086016F500600068BE
:1019000016F5006108600A9801280CD10798002894
:1019100004D10021200000F0E9F818E001212000A6
:1019200000F0E4F813E00A9803280CD10798002887
:1019300004D10021200000F0D9F808E001212000A6
:1019400000F0D4F803E00321200000F0CFF81021CC
:10195000200000F0A9F8002801D001200500200097
:1019600000F0B4F8002801D001200500002016F591
:1019700000610861002016F500614861002016F53D
:101980000061C8610020059988422DD216EB4011F4
:1019900011F510610968002911D5002807D15FF001
:1019A000006116EB401212F5106211600DE05FF05D
:1019B000904116EB401212F51062116005E0002113
:1019C00016EB401212F51062116016EB401111F582
:1019D000106100220A6116EB401111F510614FF6FB
:1019E0007F328A60401CCEE70021059881422DD2CB
:1019F00016EB411010F530600068002811D5002961
:101A000007D15FF0006016EB411212F530621060F2
:101A10000DE05FF0904016EB411212F5306210605D
:101A200005E0002016EB411212F53062106016EB53
:101A3000411010F530600022026116EB411010F5E4
:101A400030604FF67F328260491CCEE716F50060A9
:101A5000006930F4807016F5006210610020A0610A
:101A60007FF0804060610898002803D1A06950F0A1
:101A70001000A061A269DFF8980B0243A2610B98E5
:101A8000002803D0A06950F00800A0610F98012839
:101A900005D1A06940F0804050F00400A06128000A
:101AA000C0B2F0BC5DF810FB02000023880150F0CA
:101AB000200010615B1CDFF85C0B834201D3032024
:101AC00003E010698006F5D4002070470100002271
:101AD00010200861521CDFF83C0B824201D3032026
:101AE00003E00869C006F5D40020704710B4020076
:101AF000130013F5006004680800C0B2044313F536
:101B000000600460002010BC70470200130013F551
:101B10000060816811F00601002901D1002006E073
:101B2000022901D0062901D1022000E00F20C0B215
:101B3000704770B4020013000C78487801282BD14C
:101B400013F50060C06901250E7816F00F06B54048
:101B5000ADB2284313F50065E86113EB441010F5AE
:101B600010600068000440D413EB441010F51060BE
:101B700000688D686D056D0DCE7855EA864555EA8D
:101B8000845545F0805555F40045284313EB441522
:101B900015F51065286028E013F50060C06901257F
:101BA0000E7816F00F06B54050EA054013F50065B3
:101BB000E86113EB441010F530600068000414D4A1
:101BC00013EB441010F5306000688D686D056D0DE5
:101BD000CE7855EA864545F0805555F400452843B2
:101BE00013EB441515F530652860002070BC704774
:101BF00070B4020013000C784878012847D113EB29
:101C0000441010F510600068002817D513EB44103D
:101C100010F51060006850F0006013EB441515F5E6
:101C20001065286013EB441010F51060006850F048
:101C3000804013EB441515F510652860012013F55D
:101C40000065ED6B0E7816F00F0610FA06F6B6B2C8
:101C5000B54313F50066F56313F50065ED690E787D
:101C600016F00F06B04080B235EA000013F50065AB
:101C7000E86113EB441010F510600568DFF898096F
:101C8000054013EB441010F51060056045E013EBC0
:101C9000441010F530600068002817D513EB44108D
:101CA00010F53060006850F0006013EB441515F536
:101CB0003065286013EB441010F53060006850F078
:101CC000804013EB441515F530652860012013F5AD
:101CD0000065ED6B0E7816F00F0610FA06F635EA81
:101CE000064513F50066F56313F50065ED690E789A
:101CF00016F00F06B04035EA004513F50060C561E7
:101D000013EB441010F530600568DFF8100905404A
:101D100013EB441010F530600560002070BC704774
:101D20002DE9F84305000E001700A84696F800902C
:101D30007078012840F003817069002824D118EBE5
:101D4000491010F5106018EB491111F5106109697F
:101D50006FF3DC41016118EB491010F5106018EBCE
:101D6000491111F51061096951F40021016118EB65
:101D7000491010F5106018EB491111F5106109694F
:101D8000C90CC904016156E018EB491010F5106048
:101D900018EB491111F510610969C90CC9040161F9
:101DA00018EB491010F5106018EB491111F510618E
:101DB00009696FF3DC41016118EB491111F51061FC
:101DC00018EB491010F5106002697369B068C31808
:101DD0005B1EB068B3FBF0F0DFF8443813EAC04391
:101DE0001A430A6118EB491010F5106018EB4911FD
:101DF00011F51061096972695203520B11430161B7
:101E0000F078012817D118EB491010F5106018EB85
:101E1000491111F51061096931F0C041016118EBF8
:101E2000491010F5106018EB491111F5106109699E
:101E300051F0005101613800C0B2012836D130693B
:101E4000002805D018EB491010F510603169416188
:101E5000F07801281DD118F500608068C0050CD409
:101E600018EB491010F51060006850F0005018EBA6
:101E7000491111F5106108600BE018EB491010F5DD
:101E80001060006850F0805018EB491111F5106196
:101E9000086018EB491010F51060006850F004401D
:101EA00018EB491111F510610860E2E018EB4910D8
:101EB00010F51060006850F0044018EB491111F55E
:101EC00010610860F078012810D07069002800F0D7
:101ED000D08018F50060406B0121327812F00F02BB
:101EE0009140084318F500614863C2E018F50060AE
:101EF0008068C0050CD418EB491010F5106000681C
:101F000050F0005018EB491111F5106108600BE01A
:101F100018EB491010F51060006850F0805018EB75
:101F2000491111F5106108603800C0B20090736962
:101F30009BB23278F168280000F0A5F999E018EB1F
:101F4000491010F5306018EB491111F5306109693D
:101F5000C90CC904016118EB491010F5306018EB89
:101F6000491111F5306109696FF3DC410161706954
:101F700000281AD118EB491010F5306018EB491100
:101F800011F530610969B2685203520B11430161C6
:101F900018EB491010F5306018EB491111F530615C
:101FA000096951F40021016129E07169B0684118A3
:101FB000491EB068B1FBF0F0040018EB491010F5B1
:101FC000306018EB491111F530610969220092B2B5
:101FD000DFF84C3613EAC2431943016118EB49118B
:101FE00011F5306118EB491010F530600269B368E3
:101FF000200080B243435B035B0B1A430A61380045
:10200000C0B2012808D1F068002805D018EB4910AB
:1020100010F53060F1684161F07801281DD118F5A4
:1020200000608068C0050CD418EB491010F53060D2
:10203000006850F0005018EB491111F5306108604C
:102040000BE018EB491010F53060006850F080503C
:1020500018EB491111F53061086018EB491010F5C3
:102060003060006850F0044018EB491111F5306100
:1020700008600020BDE8F283BFFFBDFFC0ACD80000
:10208000C0E1E4000024F40080730601A0491A01B5
:10209000002D310140A44C0100366E0120ABA60199
:1020A0000048E801F0B403001C000D7848780128CE
:1020B00040F096804869002824D114EB451010F5B3
:1020C000106014EB451616F5106636696FF3DC46A2
:1020D000066114EB451010F5106014EB451616F56B
:1020E0001066366956F40026066114EB451010F5AB
:1020F000106014EB451616F510663669F60CF604FA
:10210000066137E014EB451010F5106014EB45162E
:1021100016F510663669F60CF604066114EB4510E8
:1021200010F5106014EB451616F5106636696FF35E
:10213000DC46066188684E69B04201D28868486111
:1021400014EB451010F5106014EB451616F51066EB
:10215000366956F40026066114EB451010F5106040
:1021600014EB451616F5106636694F697F037F0B31
:102170003E4306611000C0B2012815D1086900284D
:1021800005D014EB451010F510600E69466114EB94
:10219000451010F51060006850F0044014EB45162F
:1021A00016F5106630606BE014EB451010F510600A
:1021B000006850F0044014EB451616F510663060C8
:1021C000486900285CD014F50060406B01260F7848
:1021D00017F00F07BE40304314F5006670634FE000
:1021E00014EB451010F5306014EB451616F530660B
:1021F0003669F60CF604066114EB451010F53060F4
:1022000014EB451616F5306636696FF3DC46066149
:102210004869002801D08868486114EB451010F522
:10222000306014EB451616F53066366956F4002614
:10223000066114EB451010F5306014EB451616F5E9
:10224000306636698F687F037F0B3E43066110005E
:10225000C0B2012808D1C868002805D014EB451089
:1022600010F53060CE68466114EB451010F5306013
:10227000006850F0044014EB451616F530663060E7
:102280000020F0BC70472DE9F0430700079CBC46D6
:102290008E462000C0B200281AD1180080B2C01C9F
:1022A0008008050000200600AE4211D27046D0F82A
:1022B000008091465FFA89F94FF4805000FB09C90C
:1022C00019F58059C9F800801EF1040E761CEBE761
:1022D0000020BDE8F083F0B403001C0008001600E5
:1022E000B6B2F61CB6080025B54208D214F58057E0
:1022F0003F688446CCF80070001D6D1CF4E7F0BC0C
:10230000704730B403000A001C001178507801288F
:1023100021D114EB411010F51060006800280DD495
:1023200000290BD014EB411010F51060006830F05C
:10233000804014EB411515F51065286014EB411031
:1023400010F51060006850F4001014EB411515F5FD
:102350001065286020E014EB411010F53060006833
:1023600000280DD400290BD014EB411010F530607B
:10237000006830F0804014EB411515F53065286099
:1023800014EB411010F53060006850F4001014EBAD
:10239000411515F530652860002030BC704730B419
:1023A000020013000C78487801281ED113EB44106A
:1023B00010F51060006830F4001013EB441515F5AB
:1023C00010652860C878032802D0C87802282AD16E
:1023D00013EB441010F51060006850F0805013EBC0
:1023E000441515F5106528601DE013EB441010F539
:1023F0003060006830F4001013EB441515F53065BB
:102400002860C878032802D0C87802280BD113EBC3
:10241000441010F53060006850F0805013EB441504
:1024200015F530652860002030BC704710B40200FC
:10243000130013F50060006830F4FE6013F50064CB
:10244000206013F5006000680C00E4B2240114F46D
:10245000FE64204313F500642060002010BC704728
:1024600038B50400250015F50060406830F0020022
:1024700015F500614860032000F0D6F8002032BD59
:1024800038B50400250015F50060406850F00200E2
:1024900015F500614860032000F0C6F8002032BD49
:1024A000020050699169084070470200130013F55B
:1024B0000060806913F50061C9690840000C70472D
:1024C0000200130013F50060806913F50061C9690B
:1024D000084080B2704710B403001C000800C0B26E
:1024E00014EB401010F53060806814F500625269FA
:1024F000104010BC704770B40200130013F5006068
:10250000046913F50060456B11F00F002E00C64002
:10251000F60116F0800634430800C0B213EB4010F9
:1025200010F510608068204070BC7047406910F062
:102530000100704701000A0012F510600068C00A2F
:10254000C00212F51063186012F50060406850F484
:10255000807012F5006358600020704770B403006B
:102560001C001D6CDFF8BC00854206D314F53060FA
:102570000068002801D500202BE0002014F530660B
:10258000306114F53060006950F4002014F53066B5
:10259000306114F53060006950F0180014F53066B1
:1025A000306114F53060006950F0C04014F53066B9
:1025B00030610800C0B201280AD114F530604261D0
:1025C00014F53060006850F0802014F530663060FB
:1025D000002070BC704710B401000022521C0D484E
:1025E000824201D3032010E00B69002BF6D50023B3
:1025F0000C6954F001040C615B1C834201D303207D
:1026000003E00A69D207F7D4002010BC704700002D
:1026100000383C80410D0300007833EC0078F3EF84
:102620000000F81F0B30544F70B5040000F010F894
:102630000500260016F1010F02D004480078361874
:1026400000F006F8401BB042FAD370BD8C010020A8
:1026500001480068704700BF981D002070B58AB01F
:102660000400002C01D10120B6E0266894F8BD03D7
:10267000002805D1002084F8BC03200000F080FE73
:10268000032084F8BD03F06BC00501D40020206155
:102690002068FFF7DCF8211D83B06846342201F082
:1026A000EBF80EBC2068FFF71DF8002804D00220CC
:1026B00084F8BD0301208FE000212068FFF7CEF8E9
:1026C00000200100C9B26268914231D21C2102008F
:1026D000D2B24A432244012382F83D300200D2B2F2
:1026E0004A43224482F83C000200D2B24A432244C8
:1026F0000300DBB2A2F842300200D2B24A432244C5
:10270000002382F83F300200D2B24A432244002321
:1027100053640200D2B24A4322440023936402006D
:10272000D2B201FB02F1214400220A65401CC8E735
:1027300000252800C0B2616888422CD21C202900E4
:10274000C9B241432144002281F8FD212900C9B2C8
:102750004143214481F8FC512900C9B2414321443D
:10276000002281F8FF212900C9B2414321440022FF
:10277000C1F804222900C9B2414321440022C1F812
:1027800008222900C9B200FB01F020440021C0F852
:1027900010126D1CCDE7211D83B06846342201F074
:1027A0006BF80EBC2068FFF779F8002804D00220EF
:1027B00084F8BD0301200FE0002084F838000120D8
:1027C00084F8BD03606A012802D1200001F0D4F82A
:1027D0002068FFF755FE00200AB070BD10B5040058
:1027E00094F8BC03012801D102200CE0012084F8F8
:1027F000BC032068FFF734FE2068FFF721F80020B3
:1028000084F8BC03002010BD2DE9FE4F8146D9F8A5
:1028100000A0D346D9F80000FFF788FE002840F05A
:10282000BA82D9F80000FFF73BFE002800F0B3821F
:10283000D9F80000FFF734FE800707D5D9F800006B
:10284000406910F00200D9F800104861D9F8000082
:10285000FFF726FEC0064CD5D9F80000806930F09D
:102860001000D9F800108861DAF82000804618F0CE
:102870000F011C20414309EB010010F5FE70009090
:10288000C8F3434002281BD147F6F07018EA000F46
:1028900027D0C8F30A1292B20098C1685046FFF7D9
:1028A0001AFD0098C068C8F30A1108440099C8606E
:1028B00000988169C8F30A1041180098816110E0FE
:1028C000C8F3434006280CD1082219F5717150460F
:1028D000FFF701FD00988169C8F30A1041180098BC
:1028E0008161D9F80000806950F01000D9F800101B
:1028F0008861D9F80000FFF7D3FD000345D500201B
:102900000500D9F80000FFF7D0FD0400002C3CD0F2
:10291000E00737D52900C9B2D9F80000FFF7DBFD81
:102920000700F80709D51BEB451010F530600121B1
:1029300081602900484600F044FC380709D51BEBAC
:10294000451010F53060082181602900484600F0EC
:10295000E4FCF80605D51BEB451010F5306010219E
:102960008160B80605D51BEB451010F530602021BD
:102970008160B80406D51BEB451010F530604FF4AC
:10298000005181606D1C6408C0E7D9F80000FFF7B2
:1029900087FD400375D5D9F80000FFF791FD0400CD
:1029A00000200500002C6CD0E00767D52900C9B2D3
:1029B000D9F80000FFF79FFD0700F80738D501217F
:1029C00015F00F00814001911BF50060416B0198EB
:1029D00081431BF5006041631BEB451010F510604F
:1029E00001218160D9F8100001281CD11C2000FBB6
:1029F00005F14944896C00FB05F24A44526C1144CC
:102A000000FB05F24A449164002D0CD100FB05F057
:102A10004844006D002806D119F571720121D9F8DA
:102A20000000FFF79BFD2900C9B2484600F038FDC1
:102A3000380705D51BEB451010F5106008218160A3
:102A4000F80605D51BEB451010F5106010218160CC
:102A5000780605D51BEB451010F51060402181600C
:102A6000B80705D51BEB451010F5106002218160F9
:102A7000380603D52900484600F02DFB6D1C64087C
:102A800090E7D9F80000FFF70BFD00281ED51BF5D5
:102A900000604068400840001BF50061486099F8FC
:102AA000F403012807D1002089F8F40300214846E7
:102AB00000F07DFE02E0484600F03FFDD9F800003E
:102AC000406910F00040D9F800104861D9F80000C2
:102AD000FFF7E6FC00050FD51BF500608068C00716
:102AE00002D5484600F010FDD9F80000406910F406
:102AF0000060D9F800104861D9F80000FFF7D0FC59
:102B000000011DD5D9F80000406910F00060D9F827
:102B10000010486199F8F40300280ED1012089F8CB
:102B2000F403D9F80000406DC0F38300C9F8F8033E
:102B30000121484600F03BFE02E0484600F0E4FC7C
:102B4000D9F80000FFF7ACFCC00440F19B801BF5F6
:102B500000604068400840001BF50061486010219B
:102B6000D9F80000FEF7A0FF00200600D9F8040005
:102B700086423DD24FF67F301BEB461111F51061B6
:102B800088601BEB461111F51061096831F40011E2
:102B90001BEB461212F5106211601BEB461111F58A
:102BA0001061096851F000611BEB461212F51062CA
:102BB00011601BEB461111F5306188601BEB46106C
:102BC00010F53060006830F400101BEB461111F571
:102BD000306108601BEB461010F53060006850F063
:102BE00000601BEB461111F530610860761CBDE7F3
:102BF0001BF50060C06950F001101BF50061C86151
:102C0000D9F83000002812D01BF50060D0F88400FD
:102C100050F00B001BF50061C1F884001BF500604B
:102C2000406C50F00B001BF50061486411E01BF58F
:102C30000060406940F4005050F02B001BF500612B
:102C400048611BF50060006950F00B001BF5006146
:102C500008611BF50060006830F4FE601BF5006140
:102C6000086019F57172D9F81010C9B2D9F80000CE
:102C7000FFF774FCD9F80000406910F48050D9F8CF
:102C800000104861D9F80000FFF70AFC80041ED547
:102C9000D9F80000FFF74EFCD9F80000FEF735FF29
:102CA000C9F80C0001F0E0F90100D9F80C20D2B20B
:102CB000D9F80000FEF74EFD484600F009FCD9F8AF
:102CC0000000406910F40050D9F800104861D9F8AC
:102CD0000000FFF7E5FB00070AD5484600F0F1FBCE
:102CE000D9F80000406910F00800D9F800104861D8
:102CF000D9F80000FFF7D4FBC0020ED50020050074
:102D00002900C9B2484600F029FCD9F80000406902
:102D100010F48010D9F800104861D9F80000FFF7CE
:102D2000BFFB80020ED5002005002900C9B248462D
:102D300000F00AFCD9F80000406910F40010D9F83E
:102D400000104861D9F80000FFF7AAFB40000AD53F
:102D5000484600F00DFCD9F80000406910F08040B2
:102D6000D9F800104861D9F80000FFF799FB400737
:102D700011D5D9F80000406880465FEA487002D556
:102D8000484600F0FCFBD9F80000406858EA000013
:102D9000D9F800104860BDE8F78F38B504000D0081
:102DA00094F8BC03012801D102200DE0012084F831
:102DB000BC0384F838502900C9B22068FFF736FBFD
:102DC000002084F8BC03002032BD2DE9F843040044
:102DD0000D0016001F005FF000082800C0B20006BA
:102DE0000DD52900C9B211F00F011C20414304EB9D
:102DF000010010F13C09012089F801000CE02900D4
:102E0000C9B211F00F011C20414304EB010010F581
:102E1000FE79002089F8010015F00F0089F8000004
:102E2000300080B2C9F8080089F8037099F80100F1
:102E3000002803D099F80000A9F806003800C0B2B5
:102E4000022802D1002089F8040094F8BC0301286C
:102E500001D102200BE0012084F8BC034946206820
:102E6000FEF767FE002084F8BC034046C0B2BDE810
:102E7000F28370B504000D002800C0B200060CD526
:102E80002900C9B211F00F011C20414304EB0100DD
:102E900010F13C06012070700BE02900C9B211F05E
:102EA0000F011C20414304EB010010F5FE760020C9
:102EB000707015F00F00307094F8BC03012801D138
:102EC00002200AE0012084F8BC0331002068FEF7EC
:102ED0008FFE002084F8BC03002070BD2DE9F04176
:102EE00004000F0015001E003900C9B211F00F01D7
:102EF0001C20414304EB010010F5FE78C8F80C508B
:102F0000C8F814600020C8F81800002088F80100F4
:102F100017F00F0088F800002069012801D1C8F8D7
:102F2000105017F00F0F06D12269D2B24146206827
:102F3000FFF7B8F805E02269D2B241462068FEF7F3
:102F4000EFFE0020BDE8F081C9B211F00F011C2294
:102F500051430844D0F8140270472DE9F0410400B1
:102F60000F0015001E003900C9B211F00F011C201E
:102F7000414304EB010010F13C08C8F80C50C8F8BC
:102F800014600020C8F81800012088F8010017F02C
:102F90000F0088F800002069012801D1C8F81050FE
:102FA00017F00F0F06D12269D2B241462068FFF711
:102FB00079F805E02269D2B241462068FEF7B0FEFA
:102FC0000020BDE8F08170B504000D0060682900A4
:102FD000C9B211F00F01884201D201203AE0280065
:102FE000C0B200060CD52900C9B211F00F011C2097
:102FF000414304EB010010F13C060120707009E030
:103000002900C9B21C20414304EB010010F5FE76F3
:10301000002070700120B07015F00F00307094F82F
:10302000BC03012801D1022014E0012084F8BC0374
:1030300031002068FFF765F915F00F0F06D114F580
:1030400071722169C9B22068FFF788FA002084F8FC
:10305000BC03002070BD70B504000D00606829003D
:10306000C9B211F00F01884201D2012032E02800DC
:10307000C0B200060CD52900C9B211F00F011C2006
:10308000414304EB010010F13C06012070700BE09D
:103090002900C9B211F00F011C20414304EB0100CB
:1030A00010F5FE76002070700020B07015F00F0053
:1030B000307094F8BC03012801D102200AE00120FD
:1030C00084F8BC0331002068FFF769F9002084F818
:1030D000BC03002070BD2DE9F84F05000E00D5F8A7
:1030E00000B05F461C2000FB06F0284410F13C08AD
:1030F000D8F81400D8F81810884201D201205EE0F8
:10310000D8F81400D8F81890B0EB0909D8F80800DE
:10311000484502D2D8F80800814619F1030A5FEA4F
:103120009A0A17EB461010F51060806980B250457E
:1031300032D3D8F81800D8F8141088422CD2D8F816
:103140001400002828D0D8F81410D8F81800091A4C
:103150008946D8F80800484502D2D8F808008146C8
:1031600019F10300800882462869C0B200904B46DE
:103170009BB23200D2B2D8F80C105846FFF783F851
:10318000D8F80C004844C8F80C00D8F8180019EB1F
:103190000000C8F81800C4E7D8F81800D8F81410D0
:1031A00088420BD3012116F00F0081400C0017F567
:1031B0000060406BA04317F5006148630020BDE844
:1031C000F28F2DE9F84305000C002E683700D6F881
:1031D000408017EB441010F53060D0F80890286953
:1031E000012865D15FEA09700FD563488045C0F0BA
:1031F00091805FEA094040F18D8017EB441010F593
:1032000030604FF40041816084E05FEA896006D558
:1032100017EB441010F53060202181607AE019F03E
:10322000280F77D1544880450AD35FEA094007D573
:1032300017EB441010F530604FF40041816069E0F5
:103240001C2000FB04F12944D1F8041217EB4412AE
:1032500012F5306212695203520B891A00FB04F214
:103260002A44C2F8141200FB04F12944D1F80812D0
:1032700000FB04F22A44D2F80422114400FB04F2B9
:103280002A44C2F80812002C0CD100FB04F0284498
:10329000D0F81002002805D115F5717201212868B7
:1032A000FFF75CF92100C9B2280000F0E7F831E02F
:1032B0003248804519D15FEA094007D517EB441021
:1032C00010F530604FF40041816023E05FEA8960CF
:1032D00005D517EB441010F53060202181602100E6
:1032E000C9B2280000F0CAF814E0002C0DD11C204F
:1032F00000FB04F02844D0F81002002805D115F591
:10330000717200212868FFF729F92100C9B228004D
:1033100000F0B4F80020BDE8F2832DE9F047040086
:103320000D0026683700D6F8408017EB451010F5E1
:103330003060D0F80890DFF840A0D04509D35FEAAC
:10334000094006D517EB451010F530604FF40041E9
:103350008160200000F089F8D04508D32069012859
:1033600005D114F5717201212068FFF7F7F80020EC
:10337000BDE8F087000000000B30544F0A31544F75
:1033800038B586B00400142100226D46280000F0F4
:103390008FFE2068DFF88C14884264D1DFF88854EF
:1033A000286850F004002860286810F00400059098
:1033B0000598286850F001002860286810F0010086
:1033C00005900598286850F002002860286810F0E1
:1033D0000200059005980D20009002200190022027
:1033E0000290032003900A2004906946DFF83C0411
:1033F00000F092FE28200090022001900020029010
:10340000032003900A2004906946DFF8240400F0AA
:1034100083FE43F62340009002200190002002909A
:10342000032003900A2004906946DFF8080400F0A6
:1034300073FE286850F000502860286810F0005093
:1034400005900598286850F080402860286810F0A2
:10345000804005900598002200214D2001F01AF8C7
:103460004D2001F02CF807B030BD10B5040014F564
:103470007171D4F8000401F0A3F810BD38B5040050
:103480000D002900C9B21C20414304EB0100D0F813
:1034900008222900C9B2D4F8000401F0C5F831BDF2
:1034A00038B504000D002900C9B21C20414304EBCB
:1034B0000100826C2900C9B2D4F8000401F007F9B8
:1034C00031BD10B50400D4F8000401F0C6F910BDF8
:1034D00038B504000125E068002802D1002005006D
:1034E00007E0E068022802D10120050001E001F0B8
:1034F00053FA2900C9B2D4F8000401F095F9D4F8C0
:10350000000401F061F931BD10B50400D4F80004E5
:1035100001F08EF9206810F56060006850F001003D
:10352000216811F560610860206A002804D0C24853
:10353000016851F00601016010BD10B50400D4F817
:10354000000401F07FF910BD38B504000D0029001A
:10355000C9B2D4F8000401F095F931BD38B50400C2
:103560000D002900C9B2D4F8000401F088F931BD7A
:1035700010B50400D4F8000401F087F910BD10B5AF
:103580000400D4F8000401F083F910BD38B504003C
:103590002078012831D1A94DC5F80044C4F8C4529F
:1035A000A0482860082068600020E86001202861A9
:1035B0000120A8610020E8610020286200206862E4
:1035C0000020E86200202863002068632800FFF7DD
:1035D00045F8002801D001F0DFF94FF40071280010
:1035E00000F0C3F980220021280000F089F94FF48F
:1035F000BA720121280000F083F9002032BDF8B52D
:10360000040000250027D4F8C402FFF7E7F80600FD
:103610003000C0B200F018F9C0B2F2BD2DE9F04799
:1036200004000D0016001F005FF000085FF0000AA4
:103630003300DBB23A0092B22900C9B2D4F8C40216
:10364000FFF7C3FB81464846C0B200F0FDF8C0B2A8
:10365000BDE8F0872DE9F04104000D0000265FF081
:1036600000082900C9B2D4F8C402FFF702FC070021
:103670003800C0B200F0E8F8C0B2BDE8F0812DE932
:10368000F04104000D0000265FF000082900C9B2D7
:10369000D4F8C402FFF797FC07003800C0B200F06E
:1036A000D3F8C0B2BDE8F0812DE9F04104000D006F
:1036B00000265FF000082900C9B2D4F8C402FFF761
:1036C000CAFC07003800C0B200F0BEF8C0B2BDE8C6
:1036D000F0810200D2F8C4320800C0B2000609D559
:1036E000C9B211F07F011C20414303EB010090F8A7
:1036F0003E0008E0C9B211F07F011C20414303EBFA
:10370000010090F8FE0170472DE9F04104000D0022
:1037100000265FF000082900C9B2D4F8C402FFF700
:103720003CFB07003800C0B200F08EF8C0B2BDE824
:10373000F0812DE9F04704000D0016001F005FF036
:1037400000085FF0000A3B0032002900C9B2D4F83B
:10375000C402FFF702FC81464846C0B200F074F88C
:10376000C0B2BDE8F0872DE9F04704000D00160057
:103770001F005FF000085FF0000A3B0032002900E4
:10378000C9B2D4F8C402FFF7A9FB81464846C0B2CB
:1037900000F05AF8C0B2BDE8F08738B504000D005B
:1037A0002900C9B2D4F8C402FFF7CEFB32BD38B548
:1037B00004000D002800C0B2002802D0012819D052
:1037C0002EE0206A002806D000F03AF81A48016876
:1037D00031F006010160206810F560600068400863
:1037E0004000216811F560610860D4F8000401F020
:1037F00029F815E0206810F56060006850F00100BD
:10380000216811F560610860D4F8000401F010F837
:10381000206A002804D00848016851F006010160C0
:1038200031BD000000000440303802400008024072
:10383000000002400004024010ED00E09011002062
:1038400080B501F047F801BD010000220800C0B2B8
:10385000002805D0022807D004D3032806D007E0AB
:10386000002006E0032004E0012002E0032000E045
:103870000320C0B270470000103A07D330B4B1E85B
:103880003810103AA0E83810F9D230BC530724BFE2
:10389000B1E80810A0E8081044BF51F8043B40F814
:1038A000043BD20724BF31F8022B20F8022B44BF7F
:1038B0000B7803707047121F17D35B0009D151F8C2
:1038C000043B20F8023B1B0C121F20F8023BF6D2EF
:1038D0000BE051F8043B00F8013B1B0A20F8023BC7
:1038E0001B0C121F00F8013BF3D238BF121D521EF1
:1038F00024BF11F8013B00F8013BF8D870470000E5
:1039000070B403001868456A0800C0B2002806D1E8
:10391000100080B255EA00401E68B06222E01868CC
:10392000806A15EB1045002004002000C0B20E0094
:10393000F6B2761EB0420AD218682600F6B200EB44
:103940008600D0F8040115EB1045641CEDE71868FB
:103950000E00F6B200EB86001600B6B255EA064637
:10396000C0F80061002070BC70470200080080B2FF
:10397000136858620020704701000A680120C1F8EE
:10398000FC03002081F8F403906950F0006090611E
:10399000506D40F0805050F003005065002070479B
:1039A0002DE9F84304000027002C01D101201CE27E
:1039B0002078C0076DD5DFF8BC06016811F00C0156
:1039C000042909D0006810F00C0008280ED1DFF897
:1039D000A8060068400209D5DFF894060068800355
:1039E00057D56068002854D10120FEE16068B0F529
:1039F000803F06D1DFF87806016851F4803101601C
:103A000026E0606800280AD1DFF86406016831F416
:103A100080310160016831F48021016018E0606844
:103A2000B0F5A02F0AD1DFF84806016851F48021D3
:103A30000160016851F48031016009E0DFF830066F
:103A4000016831F480310160016831F48021016046
:103A5000606800280ED0FEF7FBFD0500DFF81006B9
:103A60000068800315D4FEF7F3FD401B6528F5D3ED
:103A70000320BAE1FEF7ECFD0500DFF8F40500686D
:103A8000800306D5FEF7E4FD401B6528F5D303202F
:103A9000ABE1207880075AD5DFF8D805016811F02E
:103AA0000C0F09D0006810F00C00082816D1DFF8C0
:103AB000C8050068400211D4DFF8B4050168890721
:103AC00004D5E168012901D001208EE1016831F0BF
:103AD000F801226951EAC201016038E0E06800287B
:103AE0001FD0DFF88C85D8F8000050F00100C8F82E
:103AF0000000FEF7ADFD0500D8F80000800706D4F1
:103B0000FEF7A6FD401B0328F6D303206DE1D8F88D
:103B1000000030F0F800216950EAC100C8F8000048
:103B200015E0DFF84C85D8F8000040084000C8F8E0
:103B30000000FEF78DFD0500D8F80000800706D5CF
:103B4000FEF786FD401B0328F6D303204DE12078C5
:103B500000072ED56069002815D0DFF82085D8F839
:103B6000000050F00100C8F80000FEF771FD0500EC
:103B7000D8F8000080071CD4FEF76AFD401B03281C
:103B8000F6D3032031E1DFF8F484D8F800004008D0
:103B90004000C8F80000FEF75BFD0500D8F8000003
:103BA000800706D5FEF754FD401B0328F6D30320FB
:103BB0001BE12078400740F18D80DFF8D084D8F8F1
:103BC0000000C0000DD4D8F8000050F08050C8F8B4
:103BD0000000D8F8000010F08050009000980120FC
:103BE0000700DFF8AC94D9F80000C00513D4D9F869
:103BF000000050F48070C9F80000FEF729FD0500B0
:103C0000D9F80000C00506D4FEF722FD401B652848
:103C1000F6D30320E9E0A068012806D1DFF8740498
:103C2000016851F00101016025E0A06800280AD177
:103C3000DFF860040168490849000160016831F05B
:103C40000401016017E0A06805280AD1DFF84404E8
:103C5000016851F004010160016851F00101016047
:103C600009E0DFF830040168490849000160016893
:103C700031F004010160A068002810D0FEF7E8FCD4
:103C80000500DFF810040068800719D4FEF7E0FC97
:103C9000401B41F289318842F3D30320A5E0FEF7AF
:103CA000D7FC0500DFF8EC030068800708D5FEF7B5
:103CB000CFFC401B41F289318842F3D3032094E0CA
:103CC0003800C0B2012805D1D8F8000030F080508B
:103CD000C8F80000A069002800F08680DFF894038F
:103CE000006810F00C00082856D0A06902283DD1C9
:103CF000DFF87C83D8F8000030F08070C8F800004E
:103D0000FEF7A6FC8146D8F80000800107D5FEF733
:103D10009FFCB0EB09000328F5D3032065E0E169BF
:103D2000206A0143606A51EA8011A06A4008401E7F
:103D300051EA0041E06A51EA006151F00051DFF8B8
:103D400038030160D8F8000050F08070C8F8000017
:103D5000FEF77EFC0500D8F80000800144D4FEF791
:103D600077FC401B0328F6D303203EE0DFF80083F6
:103D7000D8F8000030F08070C8F80000FEF768FC4A
:103D80000500D8F8000080012ED5FEF761FC401B2D
:103D90000328F6D3032028E0DFF8DC0200680600E1
:103DA000A06901281ED016F48000E169884219D16B
:103DB00016F03F00216A884214D147F6C0703040A7
:103DC000616AB0EB811F0DD116F44030A16A490839
:103DD000491EB0EB014F05D116F07060E16AB0EBFF
:103DE000016F01D0012000E00020BDE8F2832DE941
:103DF000F04104000D000026002C01D10120A0E0BC
:103E0000DFF89472386810F00F00A8420BD23868BF
:103E10000009000128433860386810F00F00A842FC
:103E200001D001208DE02078800719D52078400747
:103E300005D5DFF84002016851F4E05101602078B7
:103E4000000705D5DFF82C02016851F460410160DC
:103E5000DFF820120A6832F0F002A06802430A601C
:103E60002078C00737D56068012806D1DFF8000246
:103E70000068800311D4012063E06068022806D145
:103E8000DFF8EC010068800107D4012059E0784890
:103E90000068800701D4012053E0DFF8D881D8F80A
:103EA00000108908890060680143C8F80010FEF717
:103EB000CFFB0600D8F8000010F00C006168B0EBF2
:103EC000810F08D0FEF7C4FB801B41F28931884284
:103ED000F0D3032035E0386810F00F0085420BD294
:103EE00038680009000128433860386810F00F0076
:103EF000A84201D0012024E02078400706D55D4982
:103F00000A6832F4E052E06802430A602078000751
:103F100007D55848016831F46041226951EAC2016D
:103F2000016000F05BF85D49524A1268C2F3031267
:103F3000895CC840534908605348006800F02EFD72
:103F40000020BDE8F08170B586B004000D001600B9
:103F5000002C20D15248016851F001010160006835
:103F600010F00100059005984FF480700090022039
:103F700001900320039000200290002004906946E5
:103F8000484800F0C9F83B48016831F0EC6129432A
:103F90003143016020E04248016851F004010160B2
:103FA000006810F00400059005984FF40070009030
:103FB0000220019003200390002002900020049032
:103FC0006946394800F0A8F82A48016821F078418C
:103FD000294351EAC601016006B070BD2DE9F041E8
:103FE00000240025002600272248006810F00C005D
:103FF000002804D0042804D0082804D031E0204848
:1040000030E02A482EE0DFF87080D8F8000010F089
:104010003F000400D8F8000040020CD5D8F800009A
:10402000C0F388102149A1FB00012200002300F009
:10403000DBFC05000BE0D8F80000C0F38810104945
:10404000A1FB00012200002300F0CEFC0500D8F8FF
:104050000000C0F30140401C40000600B5FBF6F034
:1040600000E00748BDE8F08106480068704700009E
:1040700000380240083802400438024074380240D8
:104080000024F4000400002000000020403802401A
:104090000070004070380240003C0240A8680008F0
:1040A00030380240000002400008024000366E0135
:1040B00062F30F2262F31F42401810F0030308D08E
:1040C000C91A1FD3DB0748BF00F8012D28BF20F80D
:1040D000022D130030B414461546103928BF20E9CC
:1040E0003C00FAD8490728BF20E90C0048BF40F837
:1040F000042D890028BF20F8022D48BF00F8012DAB
:1041000030BC7047C91818BF00F8012DCB0728BF75
:1041100000F8012D70470000F8B5002200230024AC
:1041200000260025102D80F00D81012717FA05F2D9
:1041300013000A681A4014009C4240F001814A684A
:10414000012A08D04A68022A05D04A68112A02D0FA
:104150004A68122A1FD1D0F808C05FF0030E2A0067
:10416000D2B252001EFA02FE3CEA0E0CD1F80CE06C
:104170002A00D2B252001EFA02FE5EEA0C0CC0F80F
:1041800008C04268AF40BA434F68C7F30017AF405A
:104190003A4316004660C7685FF0030C2A00D2B2AB
:1041A00052001CFA02F29743D1F808E02A00D2B27A
:1041B00052001EFA02FE5EEA0707C7604A68022A3A
:1041C00002D04A68122A1ED12A00D20800EB8202CD
:1041D000166A5FF00F0E15F00702D2B292001EFAB7
:1041E00002FE36EA0E06D1F810E015F00702D2B250
:1041F00092001EFA02FE5EEA060637002A00D20886
:1042000000EB8202176206682A00D2B252001CFA42
:1042100002FC36EA0C0691F804C01CF0030C2A00DC
:10422000D2B252001CFA02FC5CEA060606604A683A
:10423000D20040F18580DFF82821176857F48047C5
:104240001760126812F480420092009ADFF814C1DD
:104250002A0092085CF822705FF00F0E15F003023E
:10426000D2B292001EFA02FE37EA0E07DFF8F820FB
:10427000904201D1002630E0DFF8F020904201D1D9
:1042800001262AE0DFF8E820904201D1022624E04E
:10429000DFF8E020904201D103261EE0364A90422A
:1042A00001D1042619E0354A904201D1052614E0D7
:1042B000334A904201D106260FE0324A904201D1A2
:1042C00007260AE0304A904201D1082605E02F4A2D
:1042D000904201D1092600E00A26F6B215F0030249
:1042E000D2B29200964037432A0092084CF82270CE
:1042F000274E3268A243D1F804C05FEACC3C00D517
:1043000022433260234F3E68A643D1F804C05FEADF
:104310008C3C00D526433E601F4F3A68A243D1F83B
:1043200004C05FEACC2C00D522433A601B4F3E68A4
:10433000A643D1F804C05FEA8C2C00D526433E602A
:104340006D1CEFE6F1BD1300DBB2002B03D00B00B8
:104350009BB2836103E00B009BB21B048361704737
:104360004438024008380140000002400004024086
:1043700000080240000C02400010024000140240FD
:1043800000180240001C02400020024000240240AD
:10439000003C0140043C0140083C01400C3C014011
:1043A00010B410F00703DFF8304122684FF6FF0128
:1043B0000A40DFF8281151EA03210A43226010BCA9
:1043C0007047DFF814010068C0F302207047010055
:1043D00049B2002909D4012210F01F018A40404946
:1043E00003005BB25B0941F82320704710B4020060
:1043F00052B2002A05D40A013A4B040064B21A559D
:1044000008E00A01384B040064B214F00F0423449E
:1044100003F8042C10BC704770B4030013F00704B9
:10442000D4F10700052801D3042001E0D4F10700EE
:10443000251D072D01D2002500E0E51E012616FAF4
:1044400000F0401E0140A94016FA05F56D1E2A40F5
:104450001143080070BC704710B50400601EB0F135
:10446000807F01D301200EE0601E204908600F21EB
:104470005FF0FF30FFF7BAFF00201D4908600720FA
:104480001C490860002010BD10B504002000FFF793
:1044900087FF10BD2DE9F04104000D001600002734
:1044A000FFF78FFF8046320029004046FFF7B4FF38
:1044B0000100200040B2FFF799FFBDE8F08110B580
:1044C0000400200040B2FFF782FF10BD10B50400C9
:1044D0002000FFF7C1FF10BD0CED00E00000FA0561
:1044E00000E100E000E400E018ED00E014E000E08E
:1044F00018E000E010E000E070B504000D001600C8
:10450000002C01D1032019E0D4F8B802002802D011
:104510000020C4F8B802D4F8CC02002802D0002051
:10452000C4F8CC02002D01D0C4F8B452012084F8A4
:104530009C0226702000FFF729F8C0B270BD38B584
:1045400005000C000020ADF80000002C01D1032074
:1045500009E0C5F8B8426846D5F8B812896A8847B4
:10456000C5F8CC02002032BD10B504002000FFF7D2
:1045700046F810BD01000020704770B504000D0022
:104580000326D4F8B802002807D02900C9B22000B9
:10459000D4F8B8221268904706003000C0B270BD4F
:1045A00038B504000D00D4F8B802002806D0290060
:1045B000C9B22000D4F8B82252689047002032BD1A
:1045C00038B504000D00290004F2AA2000F02DFFE8
:1045D0000120C4F89402B4F8B002C4F8980294F828
:1045E000AA0210F01F00002803D002280DD006D325
:1045F00011E004F2AA21200000F019FB12E004F2FD
:10460000AA21200000F068FB0CE004F2AA2120009F
:1046100000F09AFB06E094F8AA1211F08001200045
:10462000FFF72DF8C0B232BD2DE9F04104000D00B6
:1046300016002800C0B200282CD114F5AA7007007B
:10464000D4F8940203283FD1F868B96888420FD2A1
:10465000B968F868091AB960B868F968884201D27F
:10466000BA6800E0FA683100200000F06FFF2BE02C
:10467000D4F8B8020069002808D094F89C020328F6
:1046800004D12000D4F8B81209698847200000F04E
:1046900069FF19E0D4F8B8028069002812D094F8B4
:1046A0009C0203280ED12900C9B22000D4F8B822F8
:1046B0009269904780464046C0B2002804D04046E8
:1046C000C0B202E0032000E00020BDE8F0812DE947
:1046D000F04104000D0016002800C0B2002856D199
:1046E00014F114000700D4F89402022844D1F868A9
:1046F000B96888420FD2B968F868091AB960BA680F
:104700003100200000F003FF0023002200212000E0
:10471000FFF729F830E0F868B968884217D178685F
:10472000F968884213D37868D4F8981288420ED278
:1047300000220021200000F0EAFE0020C4F89802C8
:104740000023002200212000FFF70DF814E0D4F828
:10475000B802C068002808D094F89C02032804D14D
:104760002000D4F8B812C968884780212000FEF7DD
:1047700086FF200000F003FF94F8A002012820D15A
:104780002000FFF7F7FE002084F8A00219E0D4F81B
:10479000B8024069002812D094F89C0203280ED178
:1047A0002900C9B22000D4F8B82252699047804647
:1047B0004046C0B2002804D04046C0B202E0032008
:1047C00000E00020BDE8F08110B50400012084F86D
:1047D0009C020020C4F89402002060600020C4F80D
:1047E000A402D4F8BC02002806D06168C9B2200037
:1047F000D4F8B822526890474023002200212000BC
:10480000FEF70CFF0120A4F864014020C4F8600109
:104810004023002280212000FEF700FF0120A08419
:1048200040202062002010BD02001174002070475B
:10483000010091F89C0281F89D02042081F89C02FD
:1048400000207047010091F89C02042803D191F8E0
:104850009D0281F89C020020704710B5040094F876
:104860009C02032809D1D4F8B802C069002804D0FA
:104870002000D4F8B812C9698847002010BD020092
:1048800000207047020000207047010000207047A0
:1048900010B50400012084F89C02D4F8B802002866
:1048A00006D06168C9B22000D4F8B8225268904797
:1048B000002010BD80B500F06FFE00F00BF800F096
:1048C00077FE00F0F9FE00F067FF01F027F801F035
:1048D000BDF8FEE710B592B03021002206AC2000F2
:1048E000FFF7E6FB1421002201AC2000FFF7E0FBFC
:1048F0002748016851F080510160006810F0805035
:10490000009000982348016851F44041016000681C
:1049100010F4404000900098012006905FF4803031
:10492000079002200C905FF480000D900C200E90F8
:10493000D8200F90022010900220119006A8FFF7B7
:104940002FF8002801D000F027F801F0C7F8002860
:1049500001D000F021F80F200190022002900020E9
:1049600003904FF4A05004904FF48050059007211D
:1049700001A8FFF73CFA002801D000F00DF8002252
:104980005FF480010020FFF7DEFA12B010BD0000D6
:1049900040380240007000407047000010B504002D
:1049A0004FF47A700D490978B0FBF1F00C490968B1
:1049B000B1FBF0F0FFF78AFD002801D001200CE0E8
:1049C000102C09D2002221005FF0FF30FFF762FDBA
:1049D00004480460002000E0012010BD8C0100208C
:1049E0000400002000000020BBBBE1B1B2F5803F15
:1049F00080F07E80022A1ED98C46B1FBF2F102FBC8
:104A000011C31B0443EA1043B3FBF2FC02FB1C334B
:104A100080B240EA0343B3FBF2F002FB103240EAFB
:104A20000C4000237047022A05D98446B0FBF2F0FF
:104A300002FB10C270474AB105D100F001024908DB
:104A40005FEA3000704700220023704701F082B80F
:104A50000B000200002100207047904271EB030C14
:104A6000F6D3B3F5803F2FD2F0B5B3FA83F7B1FA9E
:104A700081F4A7F10F0E3D1B5340CEF1200602FA40
:104A80000EF2F3415340B5F10F0746D80F3C2C44CA
:104A90004140C4F12006A040F1414140B1FBF3F692
:104AA00003FB1611A2FB0645001BA94102D2761E8C
:104AB0008018594180EA010221FA0EF362FA0EF2DF
:104AC00000215A403046F0BD30B4B1FBF3FC03FB8B
:104AD0001C11A2FB0C45001BA94103D2ACF1010C37
:104AE0008018594130BC02460B4660460021704791
:104AF000B2F1807F65D3F0B5B2FA82F7B1FA81F4F2
:104B0000C7F10F063D1B22FA06F307F1110EF24121
:104B100020355A40B5F10F07B8D94140C4F12006FD
:104B2000A040F1414140B1FBF3FC03FB1C11A2FB8F
:104B30000C45001BA94103D2BCF1010C801859415E
:104B40000F2F12D30F3FC90341EA5041B1FBF3F6D7
:104B500003FB1611A2FB0645D4EBC030A94102D2DB
:104B6000761E8018594146EACC3C07B34140C7F154
:104B70002006B840F1414140B1FBF3F603FB1611AA
:104B8000A2FB0645001BA94102D2761E801859419E
:104B900080EA010221FA0EF3C7F1200462FA0EF254
:104BA0000CFA07F05A402CFA04F13043F0BD80EAC9
:104BB000010221FA0EF3002162FA0EF260465A4019
:104BC000F0BD8C46B1FBF2F102FB11C31B0243EABC
:104BD0001063B3FBF2FC02FB1C331B024CEA002007
:104BE00043EA1063B3FBF2FC02FB1C331B024CEAEA
:104BF000002043EA1063B3FBF2FC02FB1C331B02F0
:104C00004CEA002043EA1063B3FBF2FC02FB1C32C7
:104C10004CEA00200023704710B40100080002781D
:104C2000441C237852EA032080B210BC704770B550
:104C300004000D000026287810F0600000280BD03A
:104C4000202801D0402840D129002000D4F8B822E3
:104C50009268904706003CE06878002821D001283F
:104C600029D0032822D005280BD0062804D00828F4
:104C700012D009280AD023E02900200000F099F979
:104C800022E02900200000F0ADFA1DE029002000FC
:104C900000F0DCFA060017E02900200000F054FBC9
:104CA00012E02900200000F076FB0DE02900200032
:104CB00000F097FB08E02900200000F09FFB03E0D4
:104CC0002900200000F0CCFB03E02900200000F0C8
:104CD000C7FB3000C0B270BD70B504000D000026E7
:104CE000287810F06000002803D0202801D0402848
:104CF00023D194F89C02401E022819D82879022852
:104D000011D229002000D4F8B822926890470600FA
:104D1000E88800280BD13000C0B2002807D120005D
:104D200000F020FC03E02900200000F099FB03E0E4
:104D30002900200000F094FB03E02900200000F08F
:104D40008FFB3000C0B270BD2DE9F04104000D00B2
:104D50000027B5F80480287810F0600000280CD0F7
:104D6000202802D0402840F01C8129002000D4F8DF
:104D7000B82292689047070017E16878002876D03B
:104D800001283CD0032840F0078194F89C020228B7
:104D900002D0032817D02DE04046C0B200280DD025
:104DA0004046C0B2802809D04146C9B22000FEF773
:104DB00066FC80212000FEF762FC03E02900200051
:104DC00000F04EFB1AE0688800280FD14046C0B2C0
:104DD00000280BD04046C0B2802807D0E8880028C1
:104DE00004D14146C9B22000FEF749FC200000F082
:104DF000B9FB03E02900200000F032FBD0E094F87A
:104E00009C02022802D0032817D02BE04046C0B2F3
:104E100000280DD04046C0B2802809D04146C9B212
:104E20002000FEF72CFC80212000FEF728FC03E088
:104E30002900200000F014FB18E06888002810D139
:104E400018F07F0F04D04146C9B22000FEF72CFCB9
:104E5000200000F087FB29002000D4F8B8229268D7
:104E6000904703E02900200000F0FAFA98E094F857
:104E70009C02022802D003282ED088E04046C0B20F
:104E8000002808D04046C0B2802804D02900200065
:104E900000F0E6FA7FE04046C0B200060AD541467F
:104EA000C9B211F07F011420414304EB010010F15D
:104EB000140609E04146C9B211F07F0114204143B4
:104EC00004EB010010F5AA760020306002223100C8
:104ED000200000F00BFB5EE04046C0B200060FD59C
:104EE0004146C9B211F00F011420414304EB010007
:104EF000808C002815D12900200000F0B1FA4AE08A
:104F00004146C9B211F00F011420414304EB0100E6
:104F1000B0F86401002804D12900200000F0A0FAB4
:104F200039E04046C0B200060AD54146C9B211F088
:104F30007F011420414304EB010010F1140609E045
:104F40004146C9B211F07F011420414304EB010036
:104F500010F5AA764046C0B2002803D04046C0B241
:104F6000802802D1002030600BE04146C9B2200009
:104F7000FEF7AFFB002802D00120306001E00020E6
:104F8000306002223100200000F0B0FA03E0290076
:104F9000200000F065FA03E02900200000F060FA2C
:104FA00003E02900200000F05BFA3800C0B2BDE841
:104FB000F081F8B504000D000020ADF800000026D7
:104FC0000027688880B2000AC0B201281FD00228DA
:104FD00025D0032838D0062800F0BA80072800F032
:104FE000C7800F2840F0D680D4F8B402C0690028EA
:104FF00007D06946207CD4F8B422D26990470600D5
:1050000004E02900200000F02BFA7F1CC7E069466D
:10501000207CD4F8B422126890470600BFE0207CC0
:10502000002808D16846D4F8B812896A8847060073
:105030000220707007E06846D4F8B812C96A884741
:10504000060002207070AAE0A878002808D0022884
:105050002CD018D304284FD03BD305285FD071E063
:10506000D4F8B4024068002807D06946207CD4F800
:10507000B42252689047060004E02900200000F0A6
:10508000EFF97F1C63E0D4F8B4028068002807D0F1
:105090006946207CD4F8B42292689047060004E068
:1050A0002900200000F0DCF97F1C50E0D4F8B402A5
:1050B000C068002807D06946207CD4F8B422D268A2
:1050C0009047060004E02900200000F0C9F97F1C89
:1050D0003DE0D4F8B4020069002807D06946207C7E
:1050E000D4F8B42212699047060004E02900200099
:1050F00000F0B6F97F1C2AE0D4F8B4024069002819
:1051000007D06946207CD4F8B42252699047060043
:1051100004E02900200000F0A3F97F1C17E0D4F878
:10512000B4028069002807D06946207CD4F8B422F4
:1051300092699047060004E02900200000F090F9F1
:105140007F1C04E02900200000F08AF97F1C26E083
:10515000207C002806D16846D4F8B812496B8847ED
:10516000060004E02900200000F07AF97F1C16E018
:10517000207C002808D16846D4F8B812096B88470B
:1051800006000720707004E02900200000F068F994
:105190007F1C04E02900200000F062F97F1C380029
:1051A000C0B200281DD1E888002817D0BDF8000043
:1051B00000280ED0BDF80000E988884202D3E888B4
:1051C000ADF80000BDF800203100200000F08EF99D
:1051D00007E02900200000F043F902E0200000F081
:1051E000C1F9F1BD70B504000D00A888002828D1D0
:1051F000E888002825D16888802822D2A87810F075
:105200007F00060094F89C02032804D129002000A6
:1052100000F026F919E084F89E623100C9B220003E
:10522000FEF772FA200000F09DF93000C0B20028AD
:1052300003D0022084F89C0207E0012084F89C023D
:1052400003E02900200000F00BF970BDF8B5040060
:105250000D0000263B4F688838703878022805D347
:105260002900200000F0FCF8032069E094F89C027B
:10527000022802D003281ED056E03878002816D025
:105280003878606039782000FFF777F90600300041
:10529000C0B2002804D02900200000F0E1F809E0A5
:1052A000200000F05FF9032084F89C0202E0200057
:1052B00000F058F942E0387800280CD1022084F838
:1052C0009C023878606039782000FFF769F9200087
:1052D00000F048F927E038786168884220D061689A
:1052E000C9B22000FFF75CF9387860603978200097
:1052F000FFF743F906003000C0B200280CD02900A7
:10530000200000F0ADF86168C9B22000FFF748F94D
:10531000022084F89C0206E0200000F023F902E05D
:10532000200000F01FF909E02900200000F098F8A3
:1053300039782000FFF734F9032006003000C0B2AE
:10534000F2BD0000A01D002038B504000D00E88863
:10535000012804D02900200000F082F81AE094F817
:105360009C02401E012802D9801E09D00EE00020B8
:10537000A060012214F10801200000F0B7F809E054
:105380000122211D200000F0B1F803E029002000D7
:1053900000F066F831BD38B504000D0094F89C02A9
:1053A000401E022818D8E888022804D029002000CE
:1053B00000F056F814E00120E060D4F8A4020028C0
:1053C00003D0E06850F00200E060022214F10C010A
:1053D000200000F08BF803E02900200000F040F8E6
:1053E00031BD38B504000D006888012805D10120C1
:1053F000C4F8A402200000F0B5F831BD38B50400AF
:105400000D0094F89C02401E022809D868880128E3
:1054100005D10020C4F8A402200000F0A3F803E0A6
:105420002900200000F01CF831BD70B504000D000B
:10543000280001782170401C01786170461C300002
:10544000FFF7EAFB6080701C461C3000FFF7E4FBAE
:10545000A080701C461C3000FFF7DEFBE08070BDB2
:1054600038B504000D0080212000FEF708F9002166
:105470002000FEF704F931BD2DE9F04104000D00D4
:1054800016005FF00008002C23D02700380000F041
:1054900022F84000801C308030784146C9B2685400
:1054A00018F1010803204146C9B2685418F10108F7
:1054B000387800280DD038784146C9B268547F1C2E
:1054C00018F1010800204146C9B2685418F10108DA
:1054D000EEE7BDE8F08102000020130019780029F2
:1054E00002D0401C5B1CF9E7C0B2704770B50400E5
:1054F0000D0016000220C4F89402A661E661330094
:105500002A0000212000FEF714F9002070BD70B5BC
:1055100004000D00160033002A0000212000FEF7D1
:1055200008F9002070BD70B504000D0016000320BE
:10553000C4F89402C4F85861C4F85C6133002A00CE
:1055400000212000FEF70FF9002070BD70B50400A7
:105550000D00160033002A0000212000FEF703F999
:10556000002070BD10B504000420C4F8940200238C
:10557000002200212000FEF7DCF8002010BD10B54D
:1055800004000520C4F8940200230022002120001A
:10559000FEF7E9F8002010BD80B50320FEF774FF88
:1055A0000020FFF7FBF900F0D7FA002002BD000051
:1055B00010B586B014220021684600F0E9FA394897
:1055C000016851F010010160016811F010010591AE
:1055D0000599016851F080010160016811F08001B6
:1055E00005910599016851F004010160016811F00D
:1055F000040105910599016851F0010101600168FC
:1056000011F0010105910599016851F00201016055
:10561000016811F0020105910599016851F0080136
:105620000160006810F00800059005981E4C0022EB
:105630004FF400712000FEF786FE4FF47E5000907C
:10564000002001900120029069461848FEF764FD91
:105650004FF4807000900220019000200290002002
:1056600003900020049069461148FEF755FD4FF461
:1056700000600090002001900120029069460D48D2
:10568000FEF74AFD4FF400700090012001900020C9
:1056900002900020039069462000FEF73DFD06B011
:1056A00010BD00BF3038024000040240001002402C
:1056B00000000240000802401FB510220021684689
:1056C00000F066FA2E4C2F4820605FF48030606056
:1056D0000020A060002020610020A061002084F84C
:1056E00020000020E0622848A0620020E060012045
:1056F000E061002084F8300001206061200000F0AB
:1057000051FA002801D0FFF747F90120009001204D
:105710000190002002906946200000F076FA0028EF
:1057200001D0FFF739F91FBD10B586B0040014226F
:10573000002101A800F02CFA2068124988421DD1EE
:105740001248016851F480710160006810F48070A3
:10575000009000980E48016851F001010160006856
:1057600010F00100009000980220019003200290A8
:105770000020039001A90748FEF7CEFC06B010BD3B
:10578000381D0020002001400100000F4438024075
:10579000303802400000024080B557485749016048
:1057A00000214160002181600021C1600021016170
:1057B000002141614FF400618161002101620021FB
:1057C0004162002181620021C1620021016300F079
:1057D000B1FB002801D0FFF7DFF801BD10B586B09E
:1057E000040014220021684600F0D2F920684349E1
:1057F000884240F07F804248016851F00101016019
:10580000006810F00100059005983E48016851F0CD
:1058100010010160016811F01001059105990168FE
:1058200051F001010160016811F001010591059934
:10583000016851F004010160016811F00401059153
:105840000599016851F008010160016811F0080133
:1058500005910599016851F002010160006810F09E
:105860000200059005987020009002200190002011
:105870000290002003900D20049069462248FEF714
:105880004BFC50200090022001900020029000204C
:1058900003900D20049069461C48FEF73DFC4FF430
:1058A000BE50009002200190002002900020039042
:1058B0000D20049069461648FEF72EFC4C200090FF
:1058C0000220019000200290002003900D200490FF
:1058D00069461048FEF720FC8020009002200190CD
:1058E00000200290002003900D20049069460A4891
:1058F000FEF712FC06B010BD9C1C002000000550F5
:1059000034380240303802400010024000000240AB
:1059100000080240000C02400004024080B54448E8
:1059200044490160FF214160012181600021C16083
:105930000121016100214161002181610021C161DA
:105940000021016200F04AFB002801D0FFF724F893
:1059500001BD38B586B0040014220021684600F06D
:1059600017F92068334988425FD13348016851F004
:1059700002010160006810F00200059005982F48B0
:10598000016851F010010160016811F010010591EA
:105990000599016851F002010160016811F00201EE
:1059A00005910599016851F008010160006810F047
:1059B0000800059005980420009002200190002026
:1059C0000290032003900920049069461C48FEF7CA
:1059D000A3FB0420009002200190002002900320ED
:1059E000039009200490174D69462800FEF794FBA8
:1059F0004FF460500090022001900020029003209C
:105A000003900920049069460F48FEF785FB40206B
:105A100000900220019000200290032003900A20B1
:105A2000049069462800FEF777FB07B030BD000000
:105A3000EC1C0020001000A0383802403038024032
:105A40000010024000040240000C024010B51D4C42
:105A50004FF4007020606420FCF7E6FD5FF00070FA
:105A600020606420FCF7E0FD174C0122174920005C
:105A7000FEF742FD002801D0FEF78EFF14492000FA
:105A8000FEF75DFD002801D0FEF786FF11492000DA
:105A900000F0DEFC002801D0FEF77EFF2000FEF7BC
:105AA00063FD002801D0FEF777FF0024182C07DAE9
:105AB000200000F007FD084941F82400641CF5E7C8
:105AC00010BD00BF18040240941500202C010020D6
:105AD00014000020180100203C1C00207CB500248C
